{
  "_format": "hh-sol-artifact-1",
  "contractName": "GaslessVoting",
  "sourceName": "contracts/GaslessVoting.sol",
  "abi": [
    {
      "inputs": [
        {
          "internalType": "address",
          "name": "_gasslessProposing",
          "type": "address"
        }
      ],
      "stateMutability": "nonpayable",
      "type": "constructor"
    },
    {
      "inputs": [
        {
          "internalType": "uint256",
          "name": "_proposalId",
          "type": "uint256"
        },
        {
          "internalType": "bytes",
          "name": "payload",
          "type": "bytes"
        }
      ],
      "name": "_createProposal",
      "outputs": [],
      "stateMutability": "nonpayable",
      "type": "function"
    },
    {
      "inputs": [],
      "name": "_finishProposal",
      "outputs": [],
      "stateMutability": "nonpayable",
      "type": "function"
    },
    {
      "inputs": [
        {
          "internalType": "bool",
          "name": "positive",
          "type": "bool"
        },
        {
          "internalType": "address",
          "name": "voter",
          "type": "address"
        }
      ],
      "name": "_votingProposal",
      "outputs": [],
      "stateMutability": "nonpayable",
      "type": "function"
    },
    {
      "inputs": [],
      "name": "getCurrentProposalId",
      "outputs": [
        {
          "internalType": "uint256",
          "name": "",
          "type": "uint256"
        }
      ],
      "stateMutability": "view",
      "type": "function"
    },
    {
      "inputs": [],
      "name": "getProposalState",
      "outputs": [
        {
          "components": [
            {
              "internalType": "uint256",
              "name": "positive",
              "type": "uint256"
            },
            {
              "internalType": "uint256",
              "name": "negative",
              "type": "uint256"
            },
            {
              "internalType": "uint256",
              "name": "proposalTimestamp",
              "type": "uint256"
            },
            {
              "internalType": "uint256",
              "name": "currentProposalId",
              "type": "uint256"
            },
            {
              "internalType": "enum VotingStatus",
              "name": "votingStatus",
              "type": "uint8"
            },
            {
              "internalType": "bytes",
              "name": "payload",
              "type": "bytes"
            }
          ],
          "internalType": "struct ProposalState",
          "name": "",
          "type": "tuple"
        }
      ],
      "stateMutability": "view",
      "type": "function"
    },
    {
      "inputs": [
        {
          "internalType": "uint256",
          "name": "_id",
          "type": "uint256"
        }
      ],
      "name": "getProsalStateById",
      "outputs": [
        {
          "components": [
            {
              "internalType": "uint256",
              "name": "positive",
              "type": "uint256"
            },
            {
              "internalType": "uint256",
              "name": "negative",
              "type": "uint256"
            },
            {
              "internalType": "uint256",
              "name": "proposalTimestamp",
              "type": "uint256"
            },
            {
              "internalType": "uint256",
              "name": "currentProposalId",
              "type": "uint256"
            },
            {
              "internalType": "enum VotingStatus",
              "name": "votingStatus",
              "type": "uint8"
            },
            {
              "internalType": "bytes",
              "name": "payload",
              "type": "bytes"
            }
          ],
          "internalType": "struct ProposalState",
          "name": "",
          "type": "tuple"
        }
      ],
      "stateMutability": "view",
      "type": "function"
    },
    {
      "inputs": [
        {
          "internalType": "address",
          "name": "forwarder",
          "type": "address"
        }
      ],
      "name": "isTrustedForwarder",
      "outputs": [
        {
          "internalType": "bool",
          "name": "",
          "type": "bool"
        }
      ],
      "stateMutability": "view",
      "type": "function"
    },
    {
      "inputs": [
        {
          "internalType": "uint256",
          "name": "",
          "type": "uint256"
        }
      ],
      "name": "proposalState",
      "outputs": [
        {
          "internalType": "uint256",
          "name": "positive",
          "type": "uint256"
        },
        {
          "internalType": "uint256",
          "name": "negative",
          "type": "uint256"
        },
        {
          "internalType": "uint256",
          "name": "proposalTimestamp",
          "type": "uint256"
        },
        {
          "internalType": "uint256",
          "name": "currentProposalId",
          "type": "uint256"
        },
        {
          "internalType": "enum VotingStatus",
          "name": "votingStatus",
          "type": "uint8"
        },
        {
          "internalType": "bytes",
          "name": "payload",
          "type": "bytes"
        }
      ],
      "stateMutability": "view",
      "type": "function"
    },
    {
      "inputs": [
        {
          "internalType": "bool",
          "name": "positive",
          "type": "bool"
        }
      ],
      "name": "votingProposal",
      "outputs": [],
      "stateMutability": "nonpayable",
      "type": "function"
    },
    {
      "inputs": [],
      "name": "withdraw",
      "outputs": [
        {
          "internalType": "bool",
          "name": "",
          "type": "bool"
        }
      ],
      "stateMutability": "nonpayable",
      "type": "function"
    },
    {
      "stateMutability": "payable",
      "type": "receive"
    }
  ],
  "bytecode": "0x60c06040526201518060005534801561001757600080fd5b5060405161105838038061105883398101604081905261003691610077565b73abcc9b596420a9e9172fd5938620e265a0f9df926080523360a052600280546001600160a01b0319166001600160a01b03929092169190911790556100a7565b60006020828403121561008957600080fd5b81516001600160a01b03811681146100a057600080fd5b9392505050565b60805160a051610f7e6100da60003960006104c401526000818161019c015281816105830152610a890152610f7e6000f3fe6080604052600436106100b55760003560e01c80638a52e73211610069578063d26331d41161004e578063d26331d41461020e578063f19d40a314610240578063fe10226d1461026057600080fd5b80638a52e732146101cc578063aade375b146101ec57600080fd5b80633ccfd60b1161009a5780633ccfd60b14610135578063441a21eb1461015f578063572b6c051461017f57600080fd5b80630e44e6361461010057806319b756d11461011557600080fd5b366100fb576100f96040518060400160405280600e81526020017f2d2d2d2d2d20726563656976653a0000000000000000000000000000000000008152503461027e565b005b600080fd5b34801561010c57600080fd5b506100f96102f5565b34801561012157600080fd5b506100f9610130366004610b3c565b6103b6565b34801561014157600080fd5b5061014a6104b7565b60405190151581526020015b60405180910390f35b34801561016b57600080fd5b506100f961017a366004610b6f565b610581565b34801561018b57600080fd5b5061014a61019a366004610b91565b7f00000000000000000000000000000000000000000000000000000000000000006001600160a01b0390811691161490565b3480156101d857600080fd5b506100f96101e7366004610bc2565b610635565b3480156101f857600080fd5b5061020161075e565b6040516101569190610cfb565b34801561021a57600080fd5b5061022e610229366004610d59565b61087e565b60405161015696959493929190610d72565b34801561024c57600080fd5b5061020161025b366004610d59565b610944565b34801561026c57600080fd5b50600154604051908152602001610156565b6102f18282604051602401610294929190610db6565b60408051601f198184030181529190526020810180517bffffffffffffffffffffffffffffffffffffffffffffffffffffffff167fb60e72cc00000000000000000000000000000000000000000000000000000000179052610a64565b5050565b6002546001600160a01b031633146103545760405162461bcd60e51b815260206004820152600e60248201527f4f4e4c595f50524f504f53494e4700000000000000000000000000000000000060448201526064015b60405180910390fd5b600061035e61075e565b805160208201519192509080821161037757600261037a565b60015b6001805460009081526003602052604090206004018054909160ff19909116908360028111156103ac576103ac610c7d565b0217905550505050565b60015460009081526004602090815260408083206001600160a01b038516845290915290205460ff161561042c5760405162461bcd60e51b815260206004820152600d60248201527f414c52454144595f564f54454400000000000000000000000000000000000000604482015260640161034b565b811561045957600154600090815260036020526040812080549161044f83610dd8565b9190505550610480565b60018054600090815260036020526040812090910180549161047a83610dd8565b91905055505b6001805460009081526004602090815260408083206001600160a01b03909516835293905291909120805460ff1916909117905550565b6000336001600160a01b037f000000000000000000000000000000000000000000000000000000000000000016146105315760405162461bcd60e51b815260206004820152600a60248201527f4f4e4c595f4f574e455200000000000000000000000000000000000000000000604482015260640161034b565b604051600090339047908381818185875af1925050503d8060008114610573576040519150601f19603f3d011682016040523d82523d6000602084013e610578565b606091505b50909250505090565b7f00000000000000000000000000000000000000000000000000000000000000006001600160a01b0316331461061f5760405162461bcd60e51b815260206004820152602260248201527f4f6e6c792063616c6c61626c65206279205472757374656420466f727761726460448201527f6572000000000000000000000000000000000000000000000000000000000000606482015260840161034b565b6000610629610a85565b90506102f182826103b6565b6002546001600160a01b0316331461068f5760405162461bcd60e51b815260206004820152600e60248201527f4f4e4c595f50524f504f53494e47000000000000000000000000000000000000604482015260640161034b565b816001819055506040518060c001604052806000815260200160008152602001428152602001838152602001600060028111156106ce576106ce610c7d565b8152602001828152506003600060015481526020019081526020016000206000820151816000015560208201518160010155604082015181600201556060820151816003015560808201518160040160006101000a81548160ff0219169083600281111561073e5761073e610c7d565b021790555060a082015160058201906107579082610e88565b5050505050565b610766610ac9565b6003600060015481526020019081526020016000206040518060c0016040529081600082015481526020016001820154815260200160028201548152602001600382015481526020016004820160009054906101000a900460ff1660028111156107d2576107d2610c7d565b60028111156107e3576107e3610c7d565b81526020016005820180546107f790610dff565b80601f016020809104026020016040519081016040528092919081815260200182805461082390610dff565b80156108705780601f1061084557610100808354040283529160200191610870565b820191906000526020600020905b81548152906001019060200180831161085357829003601f168201915b505050505081525050905090565b6003602081905260009182526040909120805460018201546002830154938301546004840154600585018054949693959394929360ff909216926108c190610dff565b80601f01602080910402602001604051908101604052809291908181526020018280546108ed90610dff565b801561093a5780601f1061090f5761010080835404028352916020019161093a565b820191906000526020600020905b81548152906001019060200180831161091d57829003601f168201915b5050505050905086565b61094c610ac9565b600360008381526020019081526020016000206040518060c0016040529081600082015481526020016001820154815260200160028201548152602001600382015481526020016004820160009054906101000a900460ff1660028111156109b6576109b6610c7d565b60028111156109c7576109c7610c7d565b81526020016005820180546109db90610dff565b80601f0160208091040260200160405190810160405280929190818152602001828054610a0790610dff565b8015610a545780601f10610a2957610100808354040283529160200191610a54565b820191906000526020600020905b815481529060010190602001808311610a3757829003601f168201915b5050505050815250509050919050565b80516a636f6e736f6c652e6c6f67602083016000808483855afa5050505050565b60007f00000000000000000000000000000000000000000000000000000000000000006001600160a01b03163303610ac4575060131936013560601c90565b503390565b6040518060c001604052806000815260200160008152602001600081526020016000815260200160006002811115610b0357610b03610c7d565b8152602001606081525090565b80358015158114610b2057600080fd5b919050565b80356001600160a01b0381168114610b2057600080fd5b60008060408385031215610b4f57600080fd5b610b5883610b10565b9150610b6660208401610b25565b90509250929050565b600060208284031215610b8157600080fd5b610b8a82610b10565b9392505050565b600060208284031215610ba357600080fd5b610b8a82610b25565b634e487b7160e01b600052604160045260246000fd5b60008060408385031215610bd557600080fd5b82359150602083013567ffffffffffffffff80821115610bf457600080fd5b818501915085601f830112610c0857600080fd5b813581811115610c1a57610c1a610bac565b604051601f8201601f19908116603f01168101908382118183101715610c4257610c42610bac565b81604052828152886020848701011115610c5b57600080fd5b8260208601602083013760006020848301015280955050505050509250929050565b634e487b7160e01b600052602160045260246000fd5b60038110610cb157634e487b7160e01b600052602160045260246000fd5b9052565b6000815180845260005b81811015610cdb57602081850181015186830182015201610cbf565b506000602082860101526020601f19601f83011685010191505092915050565b602081528151602082015260208201516040820152604082015160608201526060820151608082015260006080830151610d3860a0840182610c93565b5060a083015160c080840152610d5160e0840182610cb5565b949350505050565b600060208284031215610d6b57600080fd5b5035919050565b868152856020820152846040820152836060820152610d946080820184610c93565b60c060a08201526000610daa60c0830184610cb5565b98975050505050505050565b604081526000610dc96040830185610cb5565b90508260208301529392505050565b600060018201610df857634e487b7160e01b600052601160045260246000fd5b5060010190565b600181811c90821680610e1357607f821691505b602082108103610e3357634e487b7160e01b600052602260045260246000fd5b50919050565b601f821115610e8357600081815260208120601f850160051c81016020861015610e605750805b601f850160051c820191505b81811015610e7f57828155600101610e6c565b5050505b505050565b815167ffffffffffffffff811115610ea257610ea2610bac565b610eb681610eb08454610dff565b84610e39565b602080601f831160018114610eeb5760008415610ed35750858301515b600019600386901b1c1916600185901b178555610e7f565b600085815260208120601f198616915b82811015610f1a57888601518255948401946001909101908401610efb565b5085821015610f385787850151600019600388901b60f8161c191681555b5050505050600190811b0190555056fea26469706673582212201bab3cae25922e0650231a50263671dc1da4ad2ab67f21a168e67287eda9003e64736f6c63430008110033",
  "linkReferences": {},
  "deployedLinkReferences": {}
}