{
  "_format": "hh-sol-artifact-1",
  "contractName": "GaslessVoting",
  "sourceName": "contracts/GaslessVoting.sol",
  "abi": [
    {
      "inputs": [
        {
          "internalType": "address",
          "name": "_gasslessProposing",
          "type": "address"
        }
      ],
      "stateMutability": "nonpayable",
      "type": "constructor"
    },
    {
      "inputs": [
        {
          "internalType": "uint256",
          "name": "_proposalId",
          "type": "uint256"
        },
        {
          "internalType": "bytes",
          "name": "payload",
          "type": "bytes"
        }
      ],
      "name": "_createProposal",
      "outputs": [],
      "stateMutability": "nonpayable",
      "type": "function"
    },
    {
      "inputs": [
        {
          "internalType": "bool",
          "name": "positive",
          "type": "bool"
        },
        {
          "internalType": "address",
          "name": "voter",
          "type": "address"
        }
      ],
      "name": "_votingProposal",
      "outputs": [],
      "stateMutability": "nonpayable",
      "type": "function"
    },
    {
      "inputs": [],
      "name": "getProposalState",
      "outputs": [
        {
          "components": [
            {
              "internalType": "uint256",
              "name": "positive",
              "type": "uint256"
            },
            {
              "internalType": "uint256",
              "name": "negative",
              "type": "uint256"
            },
            {
              "internalType": "uint256",
              "name": "proposalTimestamp",
              "type": "uint256"
            },
            {
              "internalType": "uint256",
              "name": "currentProposalId",
              "type": "uint256"
            },
            {
              "internalType": "bytes",
              "name": "payload",
              "type": "bytes"
            }
          ],
          "internalType": "struct ProposalState",
          "name": "",
          "type": "tuple"
        }
      ],
      "stateMutability": "view",
      "type": "function"
    },
    {
      "inputs": [
        {
          "internalType": "uint256",
          "name": "",
          "type": "uint256"
        }
      ],
      "name": "proposalState",
      "outputs": [
        {
          "internalType": "uint256",
          "name": "positive",
          "type": "uint256"
        },
        {
          "internalType": "uint256",
          "name": "negative",
          "type": "uint256"
        },
        {
          "internalType": "uint256",
          "name": "proposalTimestamp",
          "type": "uint256"
        },
        {
          "internalType": "uint256",
          "name": "currentProposalId",
          "type": "uint256"
        },
        {
          "internalType": "bytes",
          "name": "payload",
          "type": "bytes"
        }
      ],
      "stateMutability": "view",
      "type": "function"
    },
    {
      "inputs": [
        {
          "internalType": "bool",
          "name": "positive",
          "type": "bool"
        }
      ],
      "name": "votingProposal",
      "outputs": [],
      "stateMutability": "nonpayable",
      "type": "function"
    },
    {
      "inputs": [],
      "name": "withdraw",
      "outputs": [
        {
          "internalType": "bool",
          "name": "",
          "type": "bool"
        }
      ],
      "stateMutability": "nonpayable",
      "type": "function"
    },
    {
      "stateMutability": "payable",
      "type": "receive"
    }
  ],
  "bytecode": "0x60a06040526201518060005534801561001757600080fd5b506040516110be3803806110be8339810160408190526100369161005f565b33608052600280546001600160a01b0319166001600160a01b039290921691909117905561008f565b60006020828403121561007157600080fd5b81516001600160a01b038116811461008857600080fd5b9392505050565b6080516110146100aa600039600061031b01526110146000f3fe6080604052600436106100695760003560e01c80638a52e732116100435780638a52e7321461011e578063aade375b1461013e578063d26331d41461016057600080fd5b806319b756d1146100b45780633ccfd60b146100d4578063441a21eb146100fe57600080fd5b366100af576100ad6040518060400160405280600e81526020017f2d2d2d2d2d20726563656976653a00000000000000000000000000000000000081525034610191565b005b600080fd5b3480156100c057600080fd5b506100ad6100cf366004610bf0565b610208565b3480156100e057600080fd5b506100e961030e565b60405190151581526020015b60405180910390f35b34801561010a57600080fd5b506100ad610119366004610c35565b6103d8565b34801561012a57600080fd5b506100ad610139366004610c6f565b61047c565b34801561014a57600080fd5b50610153610549565b6040516100f59190610d7a565b34801561016c57600080fd5b5061018061017b366004610dbd565b61065a565b6040516100f5959493929190610dd6565b61020482826040516024016101a7929190610e01565b60408051601f198184030181529190526020810180517bffffffffffffffffffffffffffffffffffffffffffffffffffffffff167fb60e72cc00000000000000000000000000000000000000000000000000000000179052610718565b5050565b60015460009081526004602090815260408083206001600160a01b038516845290915290205460ff16156102835760405162461bcd60e51b815260206004820152600d60248201527f414c52454144595f564f5445440000000000000000000000000000000000000060448201526064015b60405180910390fd5b81156102b05760015460009081526003602052604081208054916102a683610e23565b91905055506102d7565b6001805460009081526003602052604081209091018054916102d183610e23565b91905055505b6001805460009081526004602090815260408083206001600160a01b03909516835293905291909120805460ff1916909117905550565b6000336001600160a01b037f000000000000000000000000000000000000000000000000000000000000000016146103885760405162461bcd60e51b815260206004820152600a60248201527f4f4e4c595f4f574e455200000000000000000000000000000000000000000000604482015260640161027a565b604051600090339047908381818185875af1925050503d80600081146103ca576040519150601f19603f3d011682016040523d82523d6000602084013e6103cf565b606091505b50909250505090565b73abcc9b596420a9e9172fd5938620e265a0f9df9233146104615760405162461bcd60e51b815260206004820152602260248201527f47656c61746f52656c6179436f6e746578742e6f6e6c7947656c61746f52656c60448201527f6179000000000000000000000000000000000000000000000000000000000000606482015260840161027a565b60131936013560601c6104748282610208565b610204610739565b6002546001600160a01b031633146104d65760405162461bcd60e51b815260206004820152600e60248201527f4f4e4c595f50524f504f53494e47000000000000000000000000000000000000604482015260640161027a565b60018281556040805160a081018252600080825260208083018281524284860190815260608501898152608086018981528a8652600394859052969094208551815591519682019690965594516002860155905190840155905190919060048201906105429082610ed2565b5050505050565b61057b6040518060a0016040528060008152602001600081526020016000815260200160008152602001606081525090565b6003600060015481526020019081526020016000206040518060a0016040529081600082015481526020016001820154815260200160028201548152602001600382015481526020016004820180546105d390610e4a565b80601f01602080910402602001604051908101604052809291908181526020018280546105ff90610e4a565b801561064c5780601f106106215761010080835404028352916020019161064c565b820191906000526020600020905b81548152906001019060200180831161062f57829003601f168201915b505050505081525050905090565b600360205280600052604060002060009150905080600001549080600101549080600201549080600301549080600401805461069590610e4a565b80601f01602080910402602001604051908101604052809291908181526020018280546106c190610e4a565b801561070e5780601f106106e35761010080835404028352916020019161070e565b820191906000526020600020905b8154815290600101906020018083116106f157829003601f168201915b5050505050905085565b80516a636f6e736f6c652e6c6f67602083016000808483855afa5050505050565b61076436605b19013560601c36603319013536604719013560601c6001600160a01b03169190610766565b565b8060000361077357505050565b6001600160a01b03831673eeeeeeeeeeeeeeeeeeeeeeeeeeeeeeeeeeeeeeee146107b0576107ab6001600160a01b03841683836107ba565b505050565b6107ab828261083a565b604080516001600160a01b038416602482015260448082018490528251808303909101815260649091019091526020810180517bffffffffffffffffffffffffffffffffffffffffffffffffffffffff167fa9059cbb000000000000000000000000000000000000000000000000000000001790526107ab908490610953565b8047101561088a5760405162461bcd60e51b815260206004820152601d60248201527f416464726573733a20696e73756666696369656e742062616c616e6365000000604482015260640161027a565b6000826001600160a01b03168260405160006040518083038185875af1925050503d80600081146108d7576040519150601f19603f3d011682016040523d82523d6000602084013e6108dc565b606091505b50509050806107ab5760405162461bcd60e51b815260206004820152603a60248201527f416464726573733a20756e61626c6520746f2073656e642076616c75652c207260448201527f6563697069656e74206d61792068617665207265766572746564000000000000606482015260840161027a565b60006109a8826040518060400160405280602081526020017f5361666545524332303a206c6f772d6c6576656c2063616c6c206661696c6564815250856001600160a01b0316610a389092919063ffffffff16565b8051909150156107ab57808060200190518101906109c69190610f92565b6107ab5760405162461bcd60e51b815260206004820152602a60248201527f5361666545524332303a204552433230206f7065726174696f6e20646964206e60448201527f6f74207375636365656400000000000000000000000000000000000000000000606482015260840161027a565b6060610a478484600085610a4f565b949350505050565b606082471015610ac75760405162461bcd60e51b815260206004820152602660248201527f416464726573733a20696e73756666696369656e742062616c616e636520666f60448201527f722063616c6c0000000000000000000000000000000000000000000000000000606482015260840161027a565b600080866001600160a01b03168587604051610ae39190610faf565b60006040518083038185875af1925050503d8060008114610b20576040519150601f19603f3d011682016040523d82523d6000602084013e610b25565b606091505b5091509150610b3687838387610b41565b979650505050505050565b60608315610bb0578251600003610ba9576001600160a01b0385163b610ba95760405162461bcd60e51b815260206004820152601d60248201527f416464726573733a2063616c6c20746f206e6f6e2d636f6e7472616374000000604482015260640161027a565b5081610a47565b610a478383815115610bc55781518083602001fd5b8060405162461bcd60e51b815260040161027a9190610fcb565b8015158114610bed57600080fd5b50565b60008060408385031215610c0357600080fd5b8235610c0e81610bdf565b915060208301356001600160a01b0381168114610c2a57600080fd5b809150509250929050565b600060208284031215610c4757600080fd5b8135610c5281610bdf565b9392505050565b634e487b7160e01b600052604160045260246000fd5b60008060408385031215610c8257600080fd5b82359150602083013567ffffffffffffffff80821115610ca157600080fd5b818501915085601f830112610cb557600080fd5b813581811115610cc757610cc7610c59565b604051601f8201601f19908116603f01168101908382118183101715610cef57610cef610c59565b81604052828152886020848701011115610d0857600080fd5b8260208601602083013760006020848301015280955050505050509250929050565b60005b83811015610d45578181015183820152602001610d2d565b50506000910152565b60008151808452610d66816020860160208601610d2a565b601f01601f19169290920160200192915050565b60208152815160208201526020820151604082015260408201516060820152606082015160808201526000608083015160a080840152610a4760c0840182610d4e565b600060208284031215610dcf57600080fd5b5035919050565b85815284602082015283604082015282606082015260a060808201526000610b3660a0830184610d4e565b604081526000610e146040830185610d4e565b90508260208301529392505050565b600060018201610e4357634e487b7160e01b600052601160045260246000fd5b5060010190565b600181811c90821680610e5e57607f821691505b602082108103610e7e57634e487b7160e01b600052602260045260246000fd5b50919050565b601f8211156107ab57600081815260208120601f850160051c81016020861015610eab5750805b601f850160051c820191505b81811015610eca57828155600101610eb7565b505050505050565b815167ffffffffffffffff811115610eec57610eec610c59565b610f0081610efa8454610e4a565b84610e84565b602080601f831160018114610f355760008415610f1d5750858301515b600019600386901b1c1916600185901b178555610eca565b600085815260208120601f198616915b82811015610f6457888601518255948401946001909101908401610f45565b5085821015610f825787850151600019600388901b60f8161c191681555b5050505050600190811b01905550565b600060208284031215610fa457600080fd5b8151610c5281610bdf565b60008251610fc1818460208701610d2a565b9190910192915050565b602081526000610c526020830184610d4e56fea2646970667358221220234d113a7c924be8e36f38b463c3b51cab5f8e0e829e020bcd51bda63ffda9cd64736f6c63430008110033",
  "linkReferences": {},
  "deployedLinkReferences": {}
}