{
  "_format": "hh-sol-artifact-1",
  "contractName": "GaslessVoting",
  "sourceName": "contracts/GaslessVoting.sol",
  "abi": [
    {
      "inputs": [
        {
          "internalType": "address",
          "name": "_gasslessroposing",
          "type": "address"
        }
      ],
      "stateMutability": "nonpayable",
      "type": "constructor"
    },
    {
      "inputs": [
        {
          "internalType": "uint256",
          "name": "_proposalId",
          "type": "uint256"
        }
      ],
      "name": "_createProposal",
      "outputs": [],
      "stateMutability": "nonpayable",
      "type": "function"
    },
    {
      "inputs": [
        {
          "internalType": "uint256",
          "name": "",
          "type": "uint256"
        }
      ],
      "name": "proposalState",
      "outputs": [
        {
          "internalType": "uint256",
          "name": "positive",
          "type": "uint256"
        },
        {
          "internalType": "uint256",
          "name": "negative",
          "type": "uint256"
        }
      ],
      "stateMutability": "view",
      "type": "function"
    },
    {
      "inputs": [
        {
          "internalType": "bool",
          "name": "positive",
          "type": "bool"
        }
      ],
      "name": "votingProposal",
      "outputs": [],
      "stateMutability": "nonpayable",
      "type": "function"
    }
  ],
  "bytecode": "0x608060405262015180600055600060025534801561001c57600080fd5b5060405161090438038061090483398101604081905261003b91610041565b5061006f565b600060208284031215610052578081fd5b81516001600160a01b0381168114610068578182fd5b9392505050565b6108868061007e6000396000f3fe608060405234801561001057600080fd5b50600436106100415760003560e01c8063441a21eb14610046578063c922e3931461005b578063d26331d41461006e575b600080fd5b610059610054366004610729565b6100ae565b005b610059610069366004610768565b610226565b61009561007c366004610768565b6004602052600090815260409020805460019091015482565b6040805192835260208301919091520160405180910390f35b73abcc9b596420a9e9172fd5938620e265a0f9df9233146101165760405162461bcd60e51b815260206004820152600f60248201527f6f6e6c7947656c61746f52656c6179000000000000000000000000000000000060448201526064015b60405180910390fd5b600154600090815260046020908152604080832060131936013560601c80855260029091019092529091205460ff16156101925760405162461bcd60e51b815260206004820152600d60248201527f414c52454144595f564f54454400000000000000000000000000000000000000604482015260640161010d565b81156101bf5760015460009081526004602052604081208054916101b5836107ff565b91905055506101e6565b6001805460009081526004602052604081209091018054916101e0836107ff565b91905055505b6001805460009081526004602090815260408083206001600160a01b03861684526002019091529020805460ff19169091179055610222610289565b5050565b6003546001600160a01b031633146102805760405162461bcd60e51b815260206004820152600e60248201527f4f4e4c595f50524f504f53494e47000000000000000000000000000000000000604482015260640161010d565b60015542600255565b6102b436605b19013560601c36603319013536604719013560601c6001600160a01b031691906102b6565b565b806102c057505050565b6001600160a01b03831673eeeeeeeeeeeeeeeeeeeeeeeeeeeeeeeeeeeeeeee146102fd576102f86001600160a01b0384168383610307565b505050565b6102f88282610387565b604080516001600160a01b038416602482015260448082018490528251808303909101815260649091019091526020810180517bffffffffffffffffffffffffffffffffffffffffffffffffffffffff167fa9059cbb000000000000000000000000000000000000000000000000000000001790526102f89084906104a0565b804710156103d75760405162461bcd60e51b815260206004820152601d60248201527f416464726573733a20696e73756666696369656e742062616c616e6365000000604482015260640161010d565b6000826001600160a01b03168260405160006040518083038185875af1925050503d8060008114610424576040519150601f19603f3d011682016040523d82523d6000602084013e610429565b606091505b50509050806102f85760405162461bcd60e51b815260206004820152603a60248201527f416464726573733a20756e61626c6520746f2073656e642076616c75652c207260448201527f6563697069656e74206d61792068617665207265766572746564000000000000606482015260840161010d565b60006104f5826040518060400160405280602081526020017f5361666545524332303a206c6f772d6c6576656c2063616c6c206661696c6564815250856001600160a01b03166105859092919063ffffffff16565b8051909150156102f85780806020019051810190610513919061074c565b6102f85760405162461bcd60e51b815260206004820152602a60248201527f5361666545524332303a204552433230206f7065726174696f6e20646964206e60448201527f6f74207375636365656400000000000000000000000000000000000000000000606482015260840161010d565b6060610594848460008561059c565b949350505050565b6060824710156106145760405162461bcd60e51b815260206004820152602660248201527f416464726573733a20696e73756666696369656e742062616c616e636520666f60448201527f722063616c6c0000000000000000000000000000000000000000000000000000606482015260840161010d565b600080866001600160a01b031685876040516106309190610780565b60006040518083038185875af1925050503d806000811461066d576040519150601f19603f3d011682016040523d82523d6000602084013e610672565b606091505b50915091506106838783838761068e565b979650505050505050565b606083156106fa5782516106f3576001600160a01b0385163b6106f35760405162461bcd60e51b815260206004820152601d60248201527f416464726573733a2063616c6c20746f206e6f6e2d636f6e7472616374000000604482015260640161010d565b5081610594565b610594838381511561070f5781518083602001fd5b8060405162461bcd60e51b815260040161010d919061079c565b60006020828403121561073a578081fd5b81356107458161083f565b9392505050565b60006020828403121561075d578081fd5b81516107458161083f565b600060208284031215610779578081fd5b5035919050565b600082516107928184602087016107cf565b9190910192915050565b60208152600082518060208401526107bb8160408501602087016107cf565b601f01601f19169190910160400192915050565b60005b838110156107ea5781810151838201526020016107d2565b838111156107f9576000848401525b50505050565b6000600019821415610838577f4e487b710000000000000000000000000000000000000000000000000000000081526011600452602481fd5b5060010190565b801515811461084d57600080fd5b5056fea2646970667358221220beb185e2cfcbeec30f24d9ab36970abe6ceb198a8e338c3be66b508e45f4b67264736f6c63430008040033",
  "linkReferences": {},
  "deployedLinkReferences": {}
}